{
  "contractName": "TaskAssignmentPro",
  "abi": [
    {
      "anonymous": false,
      "inputs": [
        {
          "indexed": false,
          "internalType": "string",
          "name": "message",
          "type": "string"
        }
      ],
      "name": "Debug",
      "type": "event"
    },
    {
      "anonymous": false,
      "inputs": [
        {
          "indexed": false,
          "internalType": "uint256",
          "name": "taskId",
          "type": "uint256"
        },
        {
          "indexed": false,
          "internalType": "uint256",
          "name": "developerId",
          "type": "uint256"
        }
      ],
      "name": "TaskAssigned",
      "type": "event"
    },
    {
      "inputs": [],
      "name": "developerCount",
      "outputs": [
        {
          "internalType": "uint256",
          "name": "",
          "type": "uint256"
        }
      ],
      "stateMutability": "view",
      "type": "function",
      "constant": true
    },
    {
      "inputs": [
        {
          "internalType": "uint256",
          "name": "",
          "type": "uint256"
        }
      ],
      "name": "developers",
      "outputs": [
        {
          "internalType": "uint256",
          "name": "id",
          "type": "uint256"
        },
        {
          "internalType": "enum TaskAssignmentPro.DeveloperLevel",
          "name": "level",
          "type": "uint8"
        }
      ],
      "stateMutability": "view",
      "type": "function",
      "constant": true
    },
    {
      "inputs": [
        {
          "internalType": "uint256",
          "name": "",
          "type": "uint256"
        }
      ],
      "name": "taskAssignments",
      "outputs": [
        {
          "internalType": "uint256",
          "name": "",
          "type": "uint256"
        }
      ],
      "stateMutability": "view",
      "type": "function",
      "constant": true
    },
    {
      "inputs": [
        {
          "internalType": "uint256",
          "name": "_id",
          "type": "uint256"
        },
        {
          "internalType": "enum TaskAssignmentPro.DeveloperLevel",
          "name": "_level",
          "type": "uint8"
        }
      ],
      "name": "addDeveloper",
      "outputs": [],
      "stateMutability": "nonpayable",
      "type": "function"
    },
    {
      "inputs": [
        {
          "internalType": "uint256",
          "name": "_taskId",
          "type": "uint256"
        },
        {
          "internalType": "enum TaskAssignmentPro.TaskLevel",
          "name": "_taskLevel",
          "type": "uint8"
        }
      ],
      "name": "assignTask",
      "outputs": [
        {
          "internalType": "uint256",
          "name": "",
          "type": "uint256"
        }
      ],
      "stateMutability": "nonpayable",
      "type": "function"
    },
    {
      "inputs": [
        {
          "internalType": "uint256",
          "name": "_taskId",
          "type": "uint256"
        }
      ],
      "name": "getAssignedDeveloper",
      "outputs": [
        {
          "internalType": "uint256",
          "name": "",
          "type": "uint256"
        }
      ],
      "stateMutability": "view",
      "type": "function",
      "constant": true
    }
  ],
  "bytecode": "0x608060405234801561001057600080fd5b50610a04806100206000396000f3fe608060405234801561001057600080fd5b50600436106100625760003560e01c80635314f78a1461006757806392a7a19714610097578063944bc350146100b5578063eff25cd6146100d1578063f2dfae9e14610102578063f4b7f38514610132575b600080fd5b610081600480360381019061007c919061068a565b610162565b60405161008e919061082f565b60405180910390f35b61009f61017a565b6040516100ac919061082f565b60405180910390f35b6100cf60048036038101906100ca91906106b3565b610180565b005b6100eb60048036038101906100e6919061068a565b610260565b6040516100f992919061084a565b60405180910390f35b61011c6004803603810190610117919061068a565b610291565b604051610129919061082f565b60405180910390f35b61014c600480360381019061014791906106ef565b6102ae565b604051610159919061082f565b60405180910390f35b60026020528060005260406000206000915090505481565b60015481565b60405180604001604052808381526020018260028111156101ca577f4e487b7100000000000000000000000000000000000000000000000000000000600052602160045260246000fd5b81525060008060015481526020019081526020016000206000820151816000015560208201518160010160006101000a81548160ff0219169083600281111561023c577f4e487b7100000000000000000000000000000000000000000000000000000000600052602160045260246000fd5b021790555090505060016000815480929190610257906108dc565b91905055505050565b60006020528060005260406000206000915090508060000154908060010160009054906101000a900460ff16905082565b600060026000838152602001908152602001600020549050919050565b600080600090505b60015481101561040e576102c983610485565b6002811115610301577f4e487b7100000000000000000000000000000000000000000000000000000000600052602160045260246000fd5b60008083815260200190815260200160002060010160009054906101000a900460ff16600281111561035c577f4e487b7100000000000000000000000000000000000000000000000000000000600052602160045260246000fd5b14156103fb576000808281526020019081526020016000206000015460026000868152602001908152602001600020819055507f25e5c814bf9313a0efe86f97f5d6ad2921089c376aa35ab12fc2c495546755ee84600080848152602001908152602001600020600001546040516103d5929190610873565b60405180910390a16000808281526020019081526020016000206000015491505061047f565b8080610406906108dc565b9150506102b6565b507f7cdb51e9dbbc205231228146c3246e7f914aa6d4a33170e43ecc8e3593481d1a60405161043c9061080f565b60405180910390a16040517f08c379a00000000000000000000000000000000000000000000000000000000081526004016104769061080f565b60405180910390fd5b92915050565b60008060028111156104c0577f4e487b7100000000000000000000000000000000000000000000000000000000600052602160045260246000fd5b8260028111156104f9577f4e487b7100000000000000000000000000000000000000000000000000000000600052602160045260246000fd5b14156105085760009050610646565b60016002811115610542577f4e487b7100000000000000000000000000000000000000000000000000000000600052602160045260246000fd5b82600281111561057b577f4e487b7100000000000000000000000000000000000000000000000000000000600052602160045260246000fd5b141561058a5760019050610646565b6002808111156105c3577f4e487b7100000000000000000000000000000000000000000000000000000000600052602160045260246000fd5b8260028111156105fc577f4e487b7100000000000000000000000000000000000000000000000000000000600052602160045260246000fd5b141561060b5760029050610646565b6040517f08c379a000000000000000000000000000000000000000000000000000000000815260040161063d906107ef565b60405180910390fd5b919050565b60008135905061065a81610997565b92915050565b60008135905061066f816109a7565b92915050565b600081359050610684816109b7565b92915050565b60006020828403121561069c57600080fd5b60006106aa84828501610675565b91505092915050565b600080604083850312156106c657600080fd5b60006106d485828601610675565b92505060206106e58582860161064b565b9150509250929050565b6000806040838503121561070257600080fd5b600061071085828601610675565b925050602061072185828601610660565b9150509250929050565b610734816108ca565b82525050565b600061074760128361089c565b91507f496e76616c6964207461736b206c6576656c00000000000000000000000000006000830152602082019050919050565b600061078760238361089c565b91507f4e6f20646576656c6f706572206d61746368657320746865207461736b206c6560008301527f76656c00000000000000000000000000000000000000000000000000000000006020830152604082019050919050565b6107e9816108c0565b82525050565b600060208201905081810360008301526108088161073a565b9050919050565b600060208201905081810360008301526108288161077a565b9050919050565b600060208201905061084460008301846107e0565b92915050565b600060408201905061085f60008301856107e0565b61086c602083018461072b565b9392505050565b600060408201905061088860008301856107e0565b61089560208301846107e0565b9392505050565b600082825260208201905092915050565b60008190506108bb82610983565b919050565b6000819050919050565b60006108d5826108ad565b9050919050565b60006108e7826108c0565b91507fffffffffffffffffffffffffffffffffffffffffffffffffffffffffffffffff82141561091a57610919610925565b5b600182019050919050565b7f4e487b7100000000000000000000000000000000000000000000000000000000600052601160045260246000fd5b7f4e487b7100000000000000000000000000000000000000000000000000000000600052602160045260246000fd5b6003811061099457610993610954565b5b50565b600381106109a457600080fd5b50565b600381106109b457600080fd5b50565b6109c0816108c0565b81146109cb57600080fd5b5056fea2646970667358221220c79ad454442466d13d05dd658ccdf2b48e26e6df00338de29900099814a938a564736f6c63430008000033",
  "immutableReferences": {},
  "source": "pragma solidity ^0.8.0;\n\ncontract TaskAssignmentPro {\n    enum DeveloperLevel { Junior, Middle, Senior }\n    enum TaskLevel { Easy, Medium, Hard }\n\n    struct Developer {\n        uint256 id;\n        DeveloperLevel level;\n    }\n\n    mapping(uint256 => Developer) public developers;\n    uint256 public developerCount;\n\n    mapping(uint256 => uint256) public taskAssignments;\n\n    event TaskAssigned(uint256 taskId, uint256 developerId);\n    event Debug(string message);\n\n    function addDeveloper(uint256 _id, DeveloperLevel _level) public {\n        developers[developerCount] = Developer(_id, _level);\n        developerCount++;\n    }\n\n    function assignTask(uint256 _taskId, TaskLevel _taskLevel) public returns (uint256) {\n        for (uint256 i = 0; i < developerCount; i++) {\n            if (developers[i].level == _getDeveloperLevelForTask(_taskLevel)) {\n                taskAssignments[_taskId] = developers[i].id;\n                emit TaskAssigned(_taskId, developers[i].id);\n                return developers[i].id;\n            }\n        }\n        emit Debug(\"No developer matches the task level\");\n        revert(\"No developer matches the task level\");\n    }\n\n    function getAssignedDeveloper(uint256 _taskId) public view returns (uint256) {\n        return taskAssignments[_taskId];\n    }\n\n    function _getDeveloperLevelForTask(TaskLevel _taskLevel) internal pure returns (DeveloperLevel) {\n        if (_taskLevel == TaskLevel.Easy) {\n            return DeveloperLevel.Junior;\n        } else if (_taskLevel == TaskLevel.Medium) {\n            return DeveloperLevel.Middle;\n        } else if (_taskLevel == TaskLevel.Hard) {\n            return DeveloperLevel.Senior;\n        } else {\n            revert(\"Invalid task level\");\n        }\n    }\n}",
  "sourcePath": "/var/www/gulzat-apay/golang-rest-api-app/contracts/TaskAssignmentPro.sol",
  "compiler": {
    "name": "solc",
    "version": "0.8.0+commit.c7dfd78e.Emscripten.clang"
  },
  "schemaVersion": "3.4.16",
  "updatedAt": "2024-11-18T06:17:38.865Z",
  "networkType": "ethereum",
  "devdoc": {
    "kind": "dev",
    "methods": {},
    "version": 1
  },
  "userdoc": {
    "kind": "user",
    "methods": {},
    "version": 1
  }
}