{
  "contractName": "TaskAssignment",
  "abi": [
    {
      "inputs": [
        {
          "internalType": "uint256",
          "name": "",
          "type": "uint256"
        }
      ],
      "name": "developers",
      "outputs": [
        {
          "internalType": "uint256",
          "name": "id",
          "type": "uint256"
        },
        {
          "internalType": "string",
          "name": "level",
          "type": "string"
        }
      ],
      "stateMutability": "view",
      "type": "function",
      "constant": true
    },
    {
      "inputs": [
        {
          "internalType": "uint256",
          "name": "",
          "type": "uint256"
        }
      ],
      "name": "taskAssignments",
      "outputs": [
        {
          "internalType": "uint256",
          "name": "",
          "type": "uint256"
        }
      ],
      "stateMutability": "view",
      "type": "function",
      "constant": true
    },
    {
      "inputs": [
        {
          "internalType": "uint256",
          "name": "_id",
          "type": "uint256"
        },
        {
          "internalType": "string",
          "name": "_level",
          "type": "string"
        }
      ],
      "name": "addDeveloper",
      "outputs": [],
      "stateMutability": "nonpayable",
      "type": "function"
    },
    {
      "inputs": [
        {
          "internalType": "uint256",
          "name": "_taskId",
          "type": "uint256"
        },
        {
          "internalType": "string",
          "name": "_taskLevel",
          "type": "string"
        }
      ],
      "name": "assignTask",
      "outputs": [
        {
          "internalType": "uint256",
          "name": "",
          "type": "uint256"
        }
      ],
      "stateMutability": "nonpayable",
      "type": "function"
    },
    {
      "inputs": [
        {
          "internalType": "uint256",
          "name": "_taskId",
          "type": "uint256"
        }
      ],
      "name": "getAssignedDeveloper",
      "outputs": [
        {
          "internalType": "uint256",
          "name": "",
          "type": "uint256"
        }
      ],
      "stateMutability": "view",
      "type": "function",
      "constant": true
    }
  ],
  "bytecode": "0x608060405234801561001057600080fd5b50610cd8806100206000396000f3fe608060405234801561001057600080fd5b50600436106100575760003560e01c80635314f78a1461005c578063e69613891461008c578063eff25cd6146100bc578063f2dfae9e146100ed578063f3257e241461011d575b600080fd5b610076600480360381019061007191906108e3565b610139565b6040516100839190610a3e565b60405180910390f35b6100a660048036038101906100a1919061090c565b610151565b6040516100b39190610a3e565b60405180910390f35b6100d660048036038101906100d191906108e3565b61067d565b6040516100e4929190610a59565b60405180910390f35b610107600480360381019061010291906108e3565b610739565b6040516101149190610a3e565b60405180910390f35b6101376004803603810190610132919061090c565b610756565b005b60016020528060005260406000206000915090505481565b600080600090505b600080549050811015610671576040518060400160405280600481526020017f456173790000000000000000000000000000000000000000000000000000000081525080519060200120838051906020012014801561025257506040518060400160405280600681526020017f4a756e696f720000000000000000000000000000000000000000000000000000815250805190602001206000828154811061022a577f4e487b7100000000000000000000000000000000000000000000000000000000600052603260045260246000fd5b90600052602060002090600202016001016040516102489190610a27565b6040518091039020145b1561030e5760008181548110610291577f4e487b7100000000000000000000000000000000000000000000000000000000600052603260045260246000fd5b9060005260206000209060020201600001546001600086815260200190815260200160002081905550600081815481106102f4577f4e487b7100000000000000000000000000000000000000000000000000000000600052603260045260246000fd5b906000526020600020906002020160000154915050610677565b6040518060400160405280600681526020017f4d656469756d00000000000000000000000000000000000000000000000000008152508051906020012083805190602001201480156103fa57506040518060400160405280600681526020017f4d6964646c65000000000000000000000000000000000000000000000000000081525080519060200120600082815481106103d2577f4e487b7100000000000000000000000000000000000000000000000000000000600052603260045260246000fd5b90600052602060002090600202016001016040516103f09190610a27565b6040518091039020145b156104b65760008181548110610439577f4e487b7100000000000000000000000000000000000000000000000000000000600052603260045260246000fd5b90600052602060002090600202016000015460016000868152602001908152602001600020819055506000818154811061049c577f4e487b7100000000000000000000000000000000000000000000000000000000600052603260045260246000fd5b906000526020600020906002020160000154915050610677565b6040518060400160405280600481526020017f48617264000000000000000000000000000000000000000000000000000000008152508051906020012083805190602001201480156105a257506040518060400160405280600681526020017f53656e696f720000000000000000000000000000000000000000000000000000815250805190602001206000828154811061057a577f4e487b7100000000000000000000000000000000000000000000000000000000600052603260045260246000fd5b90600052602060002090600202016001016040516105989190610a27565b6040518091039020145b1561065e57600081815481106105e1577f4e487b7100000000000000000000000000000000000000000000000000000000600052603260045260246000fd5b906000526020600020906002020160000154600160008681526020019081526020016000208190555060008181548110610644577f4e487b7100000000000000000000000000000000000000000000000000000000600052603260045260246000fd5b906000526020600020906002020160000154915050610677565b808061066990610ba4565b915050610159565b50600090505b92915050565b6000818154811061068d57600080fd5b90600052602060002090600202016000915090508060000154908060010180546106b690610b72565b80601f01602080910402602001604051908101604052809291908181526020018280546106e290610b72565b801561072f5780601f106107045761010080835404028352916020019161072f565b820191906000526020600020905b81548152906001019060200180831161071257829003601f168201915b5050505050905082565b600060016000838152602001908152602001600020549050919050565b600060405180604001604052808481526020018381525090806001815401808255809150506001900390600052602060002090600202016000909190919091506000820151816000015560208201518160010190805190602001906107bc9291906107c3565b5050505050565b8280546107cf90610b72565b90600052602060002090601f0160209004810192826107f15760008555610838565b82601f1061080a57805160ff1916838001178555610838565b82800160010185558215610838579182015b8281111561083757825182559160200191906001019061081c565b5b5090506108459190610849565b5090565b5b8082111561086257600081600090555060010161084a565b5090565b600061087961087484610aba565b610a89565b90508281526020810184848401111561089157600080fd5b61089c848285610b30565b509392505050565b600082601f8301126108b557600080fd5b81356108c5848260208601610866565b91505092915050565b6000813590506108dd81610c8b565b92915050565b6000602082840312156108f557600080fd5b6000610903848285016108ce565b91505092915050565b6000806040838503121561091f57600080fd5b600061092d858286016108ce565b925050602083013567ffffffffffffffff81111561094a57600080fd5b610956858286016108a4565b9150509250929050565b6000815461096d81610b72565b6109778186610b0a565b9450600182166000811461099257600181146109a3576109d6565b60ff198316865281860193506109d6565b6109ac85610aea565b60005b838110156109ce578154818901526001820191506020810190506109af565b838801955050505b50505092915050565b60006109ea82610aff565b6109f48185610b15565b9350610a04818560208601610b3f565b610a0d81610c7a565b840191505092915050565b610a2181610b26565b82525050565b6000610a338284610960565b915081905092915050565b6000602082019050610a536000830184610a18565b92915050565b6000604082019050610a6e6000830185610a18565b8181036020830152610a8081846109df565b90509392505050565b6000604051905081810181811067ffffffffffffffff82111715610ab057610aaf610c4b565b5b8060405250919050565b600067ffffffffffffffff821115610ad557610ad4610c4b565b5b601f19601f8301169050602081019050919050565b60008190508160005260206000209050919050565b600081519050919050565b600081905092915050565b600082825260208201905092915050565b6000819050919050565b82818337600083830152505050565b60005b83811015610b5d578082015181840152602081019050610b42565b83811115610b6c576000848401525b50505050565b60006002820490506001821680610b8a57607f821691505b60208210811415610b9e57610b9d610c1c565b5b50919050565b6000610baf82610b26565b91507fffffffffffffffffffffffffffffffffffffffffffffffffffffffffffffffff821415610be257610be1610bed565b5b600182019050919050565b7f4e487b7100000000000000000000000000000000000000000000000000000000600052601160045260246000fd5b7f4e487b7100000000000000000000000000000000000000000000000000000000600052602260045260246000fd5b7f4e487b7100000000000000000000000000000000000000000000000000000000600052604160045260246000fd5b6000601f19601f8301169050919050565b610c9481610b26565b8114610c9f57600080fd5b5056fea2646970667358221220771e88d49483df16060ba6b5d248e5ad4140fb4d4ef3f016dd8a93d02b6b48ff64736f6c63430008000033",
  "immutableReferences": {},
  "source": "pragma solidity ^0.8.0;\n\ncontract TaskAssignment {\n    struct Developer {\n        uint256 id;  // ID   MySQL\n        string level;  // \"Junior\", \"Middle\", \"Senior\"\n    }\n\n    struct Task {\n        uint256 taskId;\n        string taskLevel; // \"Easy\", \"Medium\", \"Hard\"\n    }\n\n    Developer[] public developers;\n    mapping(uint256 => uint256) public taskAssignments; // taskId => developerId\n\n    //    \n    function addDeveloper(uint256 _id, string memory _level) public {\n        developers.push(Developer(_id, _level));\n    }\n\n    //    \n    function assignTask(uint256 _taskId, string memory _taskLevel) public returns (uint256) {\n        for (uint256 i = 0; i < developers.length; i++) {\n            if (keccak256(bytes(_taskLevel)) == keccak256(bytes(\"Easy\")) && keccak256(bytes(developers[i].level)) == keccak256(bytes(\"Junior\"))) {\n                taskAssignments[_taskId] = developers[i].id;\n                return developers[i].id;\n            } else if (keccak256(bytes(_taskLevel)) == keccak256(bytes(\"Medium\")) && keccak256(bytes(developers[i].level)) == keccak256(bytes(\"Middle\"))) {\n                taskAssignments[_taskId] = developers[i].id;\n                return developers[i].id;\n            } else if (keccak256(bytes(_taskLevel)) == keccak256(bytes(\"Hard\")) && keccak256(bytes(developers[i].level)) == keccak256(bytes(\"Senior\"))) {\n                taskAssignments[_taskId] = developers[i].id;\n                return developers[i].id;\n            }\n        }\n        return 0; //    \n    }\n\n    //  ID  \n    function getAssignedDeveloper(uint256 _taskId) public view returns (uint256) {\n        return taskAssignments[_taskId];\n    }\n}",
  "sourcePath": "/var/www/gulzat-apay/golang-rest-api-app/contracts/TaskAssignment.sol",
  "compiler": {
    "name": "solc",
    "version": "0.8.0+commit.c7dfd78e.Emscripten.clang"
  },
  "schemaVersion": "3.4.16",
  "updatedAt": "2024-11-18T06:17:38.439Z",
  "networkType": "ethereum",
  "devdoc": {
    "kind": "dev",
    "methods": {},
    "version": 1
  },
  "userdoc": {
    "kind": "user",
    "methods": {},
    "version": 1
  }
}