{
  "contractName": "TaskAssignmentDouble",
  "abi": [
    {
      "anonymous": false,
      "inputs": [
        {
          "indexed": false,
          "internalType": "uint256",
          "name": "taskId",
          "type": "uint256"
        },
        {
          "indexed": false,
          "internalType": "uint256",
          "name": "developerId",
          "type": "uint256"
        }
      ],
      "name": "TaskAssigned",
      "type": "event"
    },
    {
      "inputs": [
        {
          "internalType": "uint256",
          "name": "",
          "type": "uint256"
        }
      ],
      "name": "developers",
      "outputs": [
        {
          "internalType": "uint256",
          "name": "id",
          "type": "uint256"
        },
        {
          "internalType": "string",
          "name": "level",
          "type": "string"
        }
      ],
      "stateMutability": "view",
      "type": "function",
      "constant": true
    },
    {
      "inputs": [
        {
          "internalType": "uint256",
          "name": "",
          "type": "uint256"
        }
      ],
      "name": "taskAssignments",
      "outputs": [
        {
          "internalType": "uint256",
          "name": "",
          "type": "uint256"
        }
      ],
      "stateMutability": "view",
      "type": "function",
      "constant": true
    },
    {
      "inputs": [
        {
          "internalType": "uint256",
          "name": "_id",
          "type": "uint256"
        },
        {
          "internalType": "string",
          "name": "_level",
          "type": "string"
        }
      ],
      "name": "addDeveloper",
      "outputs": [],
      "stateMutability": "nonpayable",
      "type": "function"
    },
    {
      "inputs": [
        {
          "internalType": "uint256",
          "name": "_taskId",
          "type": "uint256"
        },
        {
          "internalType": "string",
          "name": "_taskLevel",
          "type": "string"
        }
      ],
      "name": "assignTask",
      "outputs": [
        {
          "internalType": "uint256",
          "name": "",
          "type": "uint256"
        }
      ],
      "stateMutability": "nonpayable",
      "type": "function"
    },
    {
      "inputs": [
        {
          "internalType": "uint256",
          "name": "_taskId",
          "type": "uint256"
        }
      ],
      "name": "getAssignedDeveloper",
      "outputs": [
        {
          "internalType": "uint256",
          "name": "",
          "type": "uint256"
        }
      ],
      "stateMutability": "view",
      "type": "function",
      "constant": true
    }
  ],
  "bytecode": "0x608060405234801561001057600080fd5b50610f49806100206000396000f3fe608060405234801561001057600080fd5b50600436106100575760003560e01c80635314f78a1461005c578063e69613891461008c578063eff25cd6146100bc578063f2dfae9e146100ed578063f3257e241461011d575b600080fd5b61007660048036038101906100719190610aa5565b610139565b6040516100839190610c86565b60405180910390f35b6100a660048036038101906100a19190610ace565b610151565b6040516100b39190610c86565b60405180910390f35b6100d660048036038101906100d19190610aa5565b61083f565b6040516100e4929190610ca1565b60405180910390f35b61010760048036038101906101029190610aa5565b6108fb565b6040516101149190610c86565b60405180910390f35b61013760048036038101906101329190610ace565b610918565b005b60016020528060005260406000206000915090505481565b600080600090505b6000805490508110156107fd576040518060400160405280600481526020017f456173790000000000000000000000000000000000000000000000000000000081525080519060200120838051906020012014801561025257506040518060400160405280600681526020017f4a756e696f720000000000000000000000000000000000000000000000000000815250805190602001206000828154811061022a577f4e487b7100000000000000000000000000000000000000000000000000000000600052603260045260246000fd5b90600052602060002090600202016001016040516102489190610c4f565b6040518091039020145b156103925760008181548110610291577f4e487b7100000000000000000000000000000000000000000000000000000000600052603260045260246000fd5b90600052602060002090600202016000015460016000868152602001908152602001600020819055507f25e5c814bf9313a0efe86f97f5d6ad2921089c376aa35ab12fc2c495546755ee8460008381548110610316577f4e487b7100000000000000000000000000000000000000000000000000000000600052603260045260246000fd5b906000526020600020906002020160000154604051610336929190610cd1565b60405180910390a160008181548110610378577f4e487b7100000000000000000000000000000000000000000000000000000000600052603260045260246000fd5b906000526020600020906002020160000154915050610839565b6040518060400160405280600681526020017f4d656469756d000000000000000000000000000000000000000000000000000081525080519060200120838051906020012014801561047e57506040518060400160405280600681526020017f4d6964646c6500000000000000000000000000000000000000000000000000008152508051906020012060008281548110610456577f4e487b7100000000000000000000000000000000000000000000000000000000600052603260045260246000fd5b90600052602060002090600202016001016040516104749190610c4f565b6040518091039020145b156105be57600081815481106104bd577f4e487b7100000000000000000000000000000000000000000000000000000000600052603260045260246000fd5b90600052602060002090600202016000015460016000868152602001908152602001600020819055507f25e5c814bf9313a0efe86f97f5d6ad2921089c376aa35ab12fc2c495546755ee8460008381548110610542577f4e487b7100000000000000000000000000000000000000000000000000000000600052603260045260246000fd5b906000526020600020906002020160000154604051610562929190610cd1565b60405180910390a1600081815481106105a4577f4e487b7100000000000000000000000000000000000000000000000000000000600052603260045260246000fd5b906000526020600020906002020160000154915050610839565b6040518060400160405280600481526020017f48617264000000000000000000000000000000000000000000000000000000008152508051906020012083805190602001201480156106aa57506040518060400160405280600681526020017f53656e696f7200000000000000000000000000000000000000000000000000008152508051906020012060008281548110610682577f4e487b7100000000000000000000000000000000000000000000000000000000600052603260045260246000fd5b90600052602060002090600202016001016040516106a09190610c4f565b6040518091039020145b156107ea57600081815481106106e9577f4e487b7100000000000000000000000000000000000000000000000000000000600052603260045260246000fd5b90600052602060002090600202016000015460016000868152602001908152602001600020819055507f25e5c814bf9313a0efe86f97f5d6ad2921089c376aa35ab12fc2c495546755ee846000838154811061076e577f4e487b7100000000000000000000000000000000000000000000000000000000600052603260045260246000fd5b90600052602060002090600202016000015460405161078e929190610cd1565b60405180910390a1600081815481106107d0577f4e487b7100000000000000000000000000000000000000000000000000000000600052603260045260246000fd5b906000526020600020906002020160000154915050610839565b80806107f590610e15565b915050610159565b506040517f08c379a000000000000000000000000000000000000000000000000000000000815260040161083090610c66565b60405180910390fd5b92915050565b6000818154811061084f57600080fd5b906000526020600020906002020160009150905080600001549080600101805461087890610de3565b80601f01602080910402602001604051908101604052809291908181526020018280546108a490610de3565b80156108f15780601f106108c6576101008083540402835291602001916108f1565b820191906000526020600020905b8154815290600101906020018083116108d457829003601f168201915b5050505050905082565b600060016000838152602001908152602001600020549050919050565b6000604051806040016040528084815260200183815250908060018154018082558091505060019003906000526020600020906002020160009091909190915060008201518160000155602082015181600101908051906020019061097e929190610985565b5050505050565b82805461099190610de3565b90600052602060002090601f0160209004810192826109b357600085556109fa565b82601f106109cc57805160ff19168380011785556109fa565b828001600101855582156109fa579182015b828111156109f95782518255916020019190600101906109de565b5b509050610a079190610a0b565b5090565b5b80821115610a24576000816000905550600101610a0c565b5090565b6000610a3b610a3684610d2b565b610cfa565b905082815260208101848484011115610a5357600080fd5b610a5e848285610da1565b509392505050565b600082601f830112610a7757600080fd5b8135610a87848260208601610a28565b91505092915050565b600081359050610a9f81610efc565b92915050565b600060208284031215610ab757600080fd5b6000610ac584828501610a90565b91505092915050565b60008060408385031215610ae157600080fd5b6000610aef85828601610a90565b925050602083013567ffffffffffffffff811115610b0c57600080fd5b610b1885828601610a66565b9150509250929050565b60008154610b2f81610de3565b610b398186610d7b565b94506001821660008114610b545760018114610b6557610b98565b60ff19831686528186019350610b98565b610b6e85610d5b565b60005b83811015610b9057815481890152600182019150602081019050610b71565b838801955050505b50505092915050565b6000610bac82610d70565b610bb68185610d86565b9350610bc6818560208601610db0565b610bcf81610eeb565b840191505092915050565b6000610be7602383610d86565b91507f4e6f20646576656c6f706572206d61746368657320746865207461736b206c6560008301527f76656c00000000000000000000000000000000000000000000000000000000006020830152604082019050919050565b610c4981610d97565b82525050565b6000610c5b8284610b22565b915081905092915050565b60006020820190508181036000830152610c7f81610bda565b9050919050565b6000602082019050610c9b6000830184610c40565b92915050565b6000604082019050610cb66000830185610c40565b8181036020830152610cc88184610ba1565b90509392505050565b6000604082019050610ce66000830185610c40565b610cf36020830184610c40565b9392505050565b6000604051905081810181811067ffffffffffffffff82111715610d2157610d20610ebc565b5b8060405250919050565b600067ffffffffffffffff821115610d4657610d45610ebc565b5b601f19601f8301169050602081019050919050565b60008190508160005260206000209050919050565b600081519050919050565b600081905092915050565b600082825260208201905092915050565b6000819050919050565b82818337600083830152505050565b60005b83811015610dce578082015181840152602081019050610db3565b83811115610ddd576000848401525b50505050565b60006002820490506001821680610dfb57607f821691505b60208210811415610e0f57610e0e610e8d565b5b50919050565b6000610e2082610d97565b91507fffffffffffffffffffffffffffffffffffffffffffffffffffffffffffffffff821415610e5357610e52610e5e565b5b600182019050919050565b7f4e487b7100000000000000000000000000000000000000000000000000000000600052601160045260246000fd5b7f4e487b7100000000000000000000000000000000000000000000000000000000600052602260045260246000fd5b7f4e487b7100000000000000000000000000000000000000000000000000000000600052604160045260246000fd5b6000601f19601f8301169050919050565b610f0581610d97565b8114610f1057600080fd5b5056fea264697066735822122044d7a054735e6cae3f2481479519f4dc8bc7a32611b5c019b54999611c6b091f64736f6c63430008000033",
  "immutableReferences": {},
  "source": "pragma solidity ^0.8.0;\n\ncontract TaskAssignmentDouble {\n    struct Developer {\n        uint256 id;  // ID   MySQL\n        string level;  // \"Junior\", \"Middle\", \"Senior\"\n    }\n\n    struct Task {\n        uint256 taskId;\n        string taskLevel; // \"Easy\", \"Medium\", \"Hard\"\n    }\n\n    Developer[] public developers;\n    mapping(uint256 => uint256) public taskAssignments; // taskId => developerId\n\n    event TaskAssigned(uint256 taskId, uint256 developerId);\n\n    //    \n    function addDeveloper(uint256 _id, string memory _level) public {\n        developers.push(Developer(_id, _level));\n    }\n\n    //    \n    function assignTask(uint256 _taskId, string memory _taskLevel) public returns (uint256) {\n        for (uint256 i = 0; i < developers.length; i++) {\n            if (keccak256(bytes(_taskLevel)) == keccak256(bytes(\"Easy\")) && keccak256(bytes(developers[i].level)) == keccak256(bytes(\"Junior\"))) {\n                taskAssignments[_taskId] = developers[i].id;\n                emit TaskAssigned(_taskId, developers[i].id);  //  \n                return developers[i].id;\n            } else if (keccak256(bytes(_taskLevel)) == keccak256(bytes(\"Medium\")) && keccak256(bytes(developers[i].level)) == keccak256(bytes(\"Middle\"))) {\n                taskAssignments[_taskId] = developers[i].id;\n                emit TaskAssigned(_taskId, developers[i].id);\n                return developers[i].id;\n            } else if (keccak256(bytes(_taskLevel)) == keccak256(bytes(\"Hard\")) && keccak256(bytes(developers[i].level)) == keccak256(bytes(\"Senior\"))) {\n                taskAssignments[_taskId] = developers[i].id;\n                emit TaskAssigned(_taskId, developers[i].id);\n                return developers[i].id;\n            }\n        }\n\n        revert(\"No developer matches the task level\");  // ,    \n    }\n\n    //  ID  \n    function getAssignedDeveloper(uint256 _taskId) public view returns (uint256) {\n        return taskAssignments[_taskId];\n    }\n}",
  "sourcePath": "/var/www/gulzat-apay/golang-rest-api-app/contracts/TaskAssigmentDouble.sol",
  "compiler": {
    "name": "solc",
    "version": "0.8.0+commit.c7dfd78e.Emscripten.clang"
  },
  "schemaVersion": "3.4.16",
  "updatedAt": "2024-11-18T06:17:38.667Z",
  "networkType": "ethereum",
  "devdoc": {
    "kind": "dev",
    "methods": {},
    "version": 1
  },
  "userdoc": {
    "kind": "user",
    "methods": {},
    "version": 1
  }
}