{
  "contractName": "TaskAssignmentProMax",
  "abi": [
    {
      "anonymous": false,
      "inputs": [
        {
          "indexed": false,
          "internalType": "string",
          "name": "message",
          "type": "string"
        }
      ],
      "name": "Debug",
      "type": "event"
    },
    {
      "anonymous": false,
      "inputs": [
        {
          "indexed": false,
          "internalType": "uint256",
          "name": "taskId",
          "type": "uint256"
        },
        {
          "indexed": false,
          "internalType": "uint256",
          "name": "developerId",
          "type": "uint256"
        }
      ],
      "name": "TaskAssigned",
      "type": "event"
    },
    {
      "inputs": [
        {
          "internalType": "uint256",
          "name": "",
          "type": "uint256"
        }
      ],
      "name": "developerIds",
      "outputs": [
        {
          "internalType": "uint256",
          "name": "",
          "type": "uint256"
        }
      ],
      "stateMutability": "view",
      "type": "function",
      "constant": true
    },
    {
      "inputs": [
        {
          "internalType": "uint256",
          "name": "",
          "type": "uint256"
        }
      ],
      "name": "developers",
      "outputs": [
        {
          "internalType": "uint256",
          "name": "id",
          "type": "uint256"
        },
        {
          "internalType": "enum TaskAssignmentProMax.DeveloperLevel",
          "name": "level",
          "type": "uint8"
        }
      ],
      "stateMutability": "view",
      "type": "function",
      "constant": true
    },
    {
      "inputs": [
        {
          "internalType": "uint256",
          "name": "",
          "type": "uint256"
        }
      ],
      "name": "taskAssignments",
      "outputs": [
        {
          "internalType": "uint256",
          "name": "",
          "type": "uint256"
        }
      ],
      "stateMutability": "view",
      "type": "function",
      "constant": true
    },
    {
      "inputs": [
        {
          "internalType": "uint256",
          "name": "_id",
          "type": "uint256"
        },
        {
          "internalType": "enum TaskAssignmentProMax.DeveloperLevel",
          "name": "_level",
          "type": "uint8"
        }
      ],
      "name": "addDeveloper",
      "outputs": [],
      "stateMutability": "nonpayable",
      "type": "function"
    },
    {
      "inputs": [
        {
          "internalType": "uint256",
          "name": "_taskId",
          "type": "uint256"
        },
        {
          "internalType": "enum TaskAssignmentProMax.TaskLevel",
          "name": "_taskLevel",
          "type": "uint8"
        }
      ],
      "name": "assignTask",
      "outputs": [
        {
          "internalType": "uint256",
          "name": "",
          "type": "uint256"
        }
      ],
      "stateMutability": "nonpayable",
      "type": "function"
    },
    {
      "inputs": [
        {
          "internalType": "uint256",
          "name": "_taskId",
          "type": "uint256"
        }
      ],
      "name": "getAssignedDeveloper",
      "outputs": [
        {
          "internalType": "uint256",
          "name": "",
          "type": "uint256"
        }
      ],
      "stateMutability": "view",
      "type": "function",
      "constant": true
    },
    {
      "inputs": [],
      "name": "resetDevelopers",
      "outputs": [],
      "stateMutability": "nonpayable",
      "type": "function"
    }
  ],
  "bytecode": "0x608060405234801561001057600080fd5b50610c1e806100206000396000f3fe608060405234801561001057600080fd5b506004361061007d5760003560e01c8063b405ad6e1161005b578063b405ad6e146100d8578063eff25cd614610108578063f2dfae9e14610139578063f4b7f385146101695761007d565b80634d5523ff146100825780635314f78a1461008c578063944bc350146100bc575b600080fd5b61008a610199565b005b6100a660048036038101906100a19190610844565b610248565b6040516100b39190610a49565b60405180910390f35b6100d660048036038101906100d1919061086d565b610260565b005b6100f260048036038101906100ed9190610844565b6103a7565b6040516100ff9190610a49565b60405180910390f35b610122600480360381019061011d9190610844565b6103cb565b604051610130929190610a64565b60405180910390f35b610153600480360381019061014e9190610844565b6103fc565b6040516101609190610a49565b60405180910390f35b610183600480360381019061017e91906108a9565b610419565b6040516101909190610a49565b60405180910390f35b60005b600180549050811015610237576000600182815481106101e5577f4e487b7100000000000000000000000000000000000000000000000000000000600052603260045260246000fd5b906000526020600020015490506000808281526020019081526020016000206000808201600090556001820160006101000a81549060ff0219169055505050808061022f90610af6565b91505061019c565b506001600061024691906107c7565b565b60026020528060005260406000206000915090505481565b600080600084815260200190815260200160002060000154146102b8576040517f08c379a00000000000000000000000000000000000000000000000000000000081526004016102af90610a29565b60405180910390fd5b6040518060400160405280838152602001826002811115610302577f4e487b7100000000000000000000000000000000000000000000000000000000600052602160045260246000fd5b8152506000808481526020019081526020016000206000820151816000015560208201518160010160006101000a81548160ff02191690836002811115610372577f4e487b7100000000000000000000000000000000000000000000000000000000600052602160045260246000fd5b021790555090505060018290806001815401808255809150506001900390600052602060002001600090919091909150555050565b600181815481106103b757600080fd5b906000526020600020016000915090505481565b60006020528060005260406000206000915090508060000154908060010160009054906101000a900460ff16905082565b600060026000838152602001908152602001600020549050919050565b60008061042583610601565b905060005b60018054905081101561058a57600060018281548110610473577f4e487b7100000000000000000000000000000000000000000000000000000000600052603260045260246000fd5b906000526020600020015490508260028111156104b9577f4e487b7100000000000000000000000000000000000000000000000000000000600052602160045260246000fd5b60008083815260200190815260200160002060010160009054906101000a900460ff166002811115610514577f4e487b7100000000000000000000000000000000000000000000000000000000600052602160045260246000fd5b1415610576578060026000888152602001908152602001600020819055507f25e5c814bf9313a0efe86f97f5d6ad2921089c376aa35ab12fc2c495546755ee8682604051610563929190610a8d565b60405180910390a18093505050506105fb565b50808061058290610af6565b91505061042a565b507f7cdb51e9dbbc205231228146c3246e7f914aa6d4a33170e43ecc8e3593481d1a6040516105b890610a09565b60405180910390a16040517f08c379a00000000000000000000000000000000000000000000000000000000081526004016105f290610a09565b60405180910390fd5b92915050565b600080600281111561063c577f4e487b7100000000000000000000000000000000000000000000000000000000600052602160045260246000fd5b826002811115610675577f4e487b7100000000000000000000000000000000000000000000000000000000600052602160045260246000fd5b141561068457600090506107c2565b600160028111156106be577f4e487b7100000000000000000000000000000000000000000000000000000000600052602160045260246000fd5b8260028111156106f7577f4e487b7100000000000000000000000000000000000000000000000000000000600052602160045260246000fd5b141561070657600190506107c2565b60028081111561073f577f4e487b7100000000000000000000000000000000000000000000000000000000600052602160045260246000fd5b826002811115610778577f4e487b7100000000000000000000000000000000000000000000000000000000600052602160045260246000fd5b141561078757600290506107c2565b6040517f08c379a00000000000000000000000000000000000000000000000000000000081526004016107b9906109e9565b60405180910390fd5b919050565b50805460008255906000526020600020908101906107e591906107e8565b50565b5b808211156108015760008160009055506001016107e9565b5090565b60008135905061081481610bb1565b92915050565b60008135905061082981610bc1565b92915050565b60008135905061083e81610bd1565b92915050565b60006020828403121561085657600080fd5b60006108648482850161082f565b91505092915050565b6000806040838503121561088057600080fd5b600061088e8582860161082f565b925050602061089f85828601610805565b9150509250929050565b600080604083850312156108bc57600080fd5b60006108ca8582860161082f565b92505060206108db8582860161081a565b9150509250929050565b6108ee81610ae4565b82525050565b6000610901601283610ab6565b91507f496e76616c6964207461736b206c6576656c00000000000000000000000000006000830152602082019050919050565b6000610941602383610ab6565b91507f4e6f20646576656c6f706572206d61746368657320746865207461736b206c6560008301527f76656c00000000000000000000000000000000000000000000000000000000006020830152604082019050919050565b60006109a7601883610ab6565b91507f446576656c6f70657220616c72656164792065786973747300000000000000006000830152602082019050919050565b6109e381610ada565b82525050565b60006020820190508181036000830152610a02816108f4565b9050919050565b60006020820190508181036000830152610a2281610934565b9050919050565b60006020820190508181036000830152610a428161099a565b9050919050565b6000602082019050610a5e60008301846109da565b92915050565b6000604082019050610a7960008301856109da565b610a8660208301846108e5565b9392505050565b6000604082019050610aa260008301856109da565b610aaf60208301846109da565b9392505050565b600082825260208201905092915050565b6000819050610ad582610b9d565b919050565b6000819050919050565b6000610aef82610ac7565b9050919050565b6000610b0182610ada565b91507fffffffffffffffffffffffffffffffffffffffffffffffffffffffffffffffff821415610b3457610b33610b3f565b5b600182019050919050565b7f4e487b7100000000000000000000000000000000000000000000000000000000600052601160045260246000fd5b7f4e487b7100000000000000000000000000000000000000000000000000000000600052602160045260246000fd5b60038110610bae57610bad610b6e565b5b50565b60038110610bbe57600080fd5b50565b60038110610bce57600080fd5b50565b610bda81610ada565b8114610be557600080fd5b5056fea26469706673582212200b853872d31e7a6b6f8b077577e5283f067e69762ad6c6efda67a373fe7ade6464736f6c63430008000033",
  "immutableReferences": {},
  "source": "pragma solidity ^0.8.0;\n\ncontract TaskAssignmentProMax {\n    enum DeveloperLevel { Junior, Middle, Senior }\n    enum TaskLevel { Easy, Medium, Hard }\n\n    struct Developer {\n        uint256 id;\n        DeveloperLevel level;\n    }\n\n    //      ID\n    mapping(uint256 => Developer) public developers;\n    uint256[] public developerIds;\n\n    mapping(uint256 => uint256) public taskAssignments;\n\n    event TaskAssigned(uint256 taskId, uint256 developerId);\n    event Debug(string message);\n\n    //     ID\n    function addDeveloper(uint256 _id, DeveloperLevel _level) public {\n        // ,     ID   \n        require(developers[_id].id == 0, \"Developer already exists\");\n\n        developers[_id] = Developer(_id, _level);\n        developerIds.push(_id);\n    }\n\n    //     \n    function assignTask(uint256 _taskId, TaskLevel _taskLevel) public returns (uint256) {\n        DeveloperLevel requiredLevel = _getDeveloperLevelForTask(_taskLevel);\n\n        for (uint256 i = 0; i < developerIds.length; i++) {\n            uint256 devId = developerIds[i];\n            if (developers[devId].level == requiredLevel) {\n                taskAssignments[_taskId] = devId;\n                emit TaskAssigned(_taskId, devId);\n                return devId;\n            }\n        }\n\n        emit Debug(\"No developer matches the task level\");\n        revert(\"No developer matches the task level\");\n    }\n\n    //  ID ,   \n    function getAssignedDeveloper(uint256 _taskId) public view returns (uint256) {\n        return taskAssignments[_taskId];\n    }\n\n    //         \n    function _getDeveloperLevelForTask(TaskLevel _taskLevel) internal pure returns (DeveloperLevel) {\n        if (_taskLevel == TaskLevel.Easy) {\n            return DeveloperLevel.Junior;\n        } else if (_taskLevel == TaskLevel.Medium) {\n            return DeveloperLevel.Middle;\n        } else if (_taskLevel == TaskLevel.Hard) {\n            return DeveloperLevel.Senior;\n        } else {\n            revert(\"Invalid task level\");\n        }\n    }\n\n    // ()     \n    function resetDevelopers() public {\n        for (uint256 i = 0; i < developerIds.length; i++) {\n            uint256 devId = developerIds[i];\n            delete developers[devId];\n        }\n        delete developerIds;\n    }\n}",
  "sourcePath": "/var/www/gulzat-apay/golang-rest-api-app/contracts/TaskAssignmentProMax.sol",
  "compiler": {
    "name": "solc",
    "version": "0.8.0+commit.c7dfd78e.Emscripten.clang"
  },
  "schemaVersion": "3.4.16",
  "updatedAt": "2024-11-18T06:17:39.073Z",
  "networkType": "ethereum",
  "devdoc": {
    "kind": "dev",
    "methods": {},
    "version": 1
  },
  "userdoc": {
    "kind": "user",
    "methods": {},
    "version": 1
  }
}